{
  "contractName": "FeetPicNFT",
  "abi": [
    {
      "inputs": [],
      "stateMutability": "nonpayable",
      "type": "constructor"
    },
    {
      "anonymous": false,
      "inputs": [
        {
          "indexed": true,
          "internalType": "address",
          "name": "owner",
          "type": "address"
        },
        {
          "indexed": true,
          "internalType": "address",
          "name": "approved",
          "type": "address"
        },
        {
          "indexed": true,
          "internalType": "uint256",
          "name": "tokenId",
          "type": "uint256"
        }
      ],
      "name": "Approval",
      "type": "event"
    },
    {
      "anonymous": false,
      "inputs": [
        {
          "indexed": true,
          "internalType": "address",
          "name": "owner",
          "type": "address"
        },
        {
          "indexed": true,
          "internalType": "address",
          "name": "operator",
          "type": "address"
        },
        {
          "indexed": false,
          "internalType": "bool",
          "name": "approved",
          "type": "bool"
        }
      ],
      "name": "ApprovalForAll",
      "type": "event"
    },
    {
      "anonymous": false,
      "inputs": [
        {
          "indexed": false,
          "internalType": "uint256",
          "name": "_fromTokenId",
          "type": "uint256"
        },
        {
          "indexed": false,
          "internalType": "uint256",
          "name": "_toTokenId",
          "type": "uint256"
        }
      ],
      "name": "BatchMetadataUpdate",
      "type": "event"
    },
    {
      "anonymous": false,
      "inputs": [
        {
          "indexed": false,
          "internalType": "uint256",
          "name": "_tokenId",
          "type": "uint256"
        }
      ],
      "name": "MetadataUpdate",
      "type": "event"
    },
    {
      "anonymous": false,
      "inputs": [
        {
          "indexed": false,
          "internalType": "uint256",
          "name": "tokenId",
          "type": "uint256"
        },
        {
          "indexed": false,
          "internalType": "string",
          "name": "tokenURI",
          "type": "string"
        },
        {
          "indexed": false,
          "internalType": "string",
          "name": "contentType",
          "type": "string"
        }
      ],
      "name": "NFTCreated",
      "type": "event"
    },
    {
      "anonymous": false,
      "inputs": [
        {
          "indexed": true,
          "internalType": "address",
          "name": "from",
          "type": "address"
        },
        {
          "indexed": true,
          "internalType": "address",
          "name": "to",
          "type": "address"
        },
        {
          "indexed": true,
          "internalType": "uint256",
          "name": "tokenId",
          "type": "uint256"
        }
      ],
      "name": "Transfer",
      "type": "event"
    },
    {
      "inputs": [
        {
          "internalType": "address",
          "name": "to",
          "type": "address"
        },
        {
          "internalType": "uint256",
          "name": "tokenId",
          "type": "uint256"
        }
      ],
      "name": "approve",
      "outputs": [],
      "stateMutability": "nonpayable",
      "type": "function"
    },
    {
      "inputs": [
        {
          "internalType": "address",
          "name": "owner",
          "type": "address"
        }
      ],
      "name": "balanceOf",
      "outputs": [
        {
          "internalType": "uint256",
          "name": "",
          "type": "uint256"
        }
      ],
      "stateMutability": "view",
      "type": "function"
    },
    {
      "inputs": [
        {
          "internalType": "uint256",
          "name": "tokenId",
          "type": "uint256"
        }
      ],
      "name": "getApproved",
      "outputs": [
        {
          "internalType": "address",
          "name": "",
          "type": "address"
        }
      ],
      "stateMutability": "view",
      "type": "function"
    },
    {
      "inputs": [
        {
          "internalType": "address",
          "name": "owner",
          "type": "address"
        },
        {
          "internalType": "address",
          "name": "operator",
          "type": "address"
        }
      ],
      "name": "isApprovedForAll",
      "outputs": [
        {
          "internalType": "bool",
          "name": "",
          "type": "bool"
        }
      ],
      "stateMutability": "view",
      "type": "function"
    },
    {
      "inputs": [],
      "name": "name",
      "outputs": [
        {
          "internalType": "string",
          "name": "",
          "type": "string"
        }
      ],
      "stateMutability": "view",
      "type": "function"
    },
    {
      "inputs": [
        {
          "internalType": "uint256",
          "name": "tokenId",
          "type": "uint256"
        }
      ],
      "name": "ownerOf",
      "outputs": [
        {
          "internalType": "address",
          "name": "",
          "type": "address"
        }
      ],
      "stateMutability": "view",
      "type": "function"
    },
    {
      "inputs": [
        {
          "internalType": "address",
          "name": "from",
          "type": "address"
        },
        {
          "internalType": "address",
          "name": "to",
          "type": "address"
        },
        {
          "internalType": "uint256",
          "name": "tokenId",
          "type": "uint256"
        }
      ],
      "name": "safeTransferFrom",
      "outputs": [],
      "stateMutability": "nonpayable",
      "type": "function"
    },
    {
      "inputs": [
        {
          "internalType": "address",
          "name": "from",
          "type": "address"
        },
        {
          "internalType": "address",
          "name": "to",
          "type": "address"
        },
        {
          "internalType": "uint256",
          "name": "tokenId",
          "type": "uint256"
        },
        {
          "internalType": "bytes",
          "name": "data",
          "type": "bytes"
        }
      ],
      "name": "safeTransferFrom",
      "outputs": [],
      "stateMutability": "nonpayable",
      "type": "function"
    },
    {
      "inputs": [
        {
          "internalType": "address",
          "name": "operator",
          "type": "address"
        },
        {
          "internalType": "bool",
          "name": "approved",
          "type": "bool"
        }
      ],
      "name": "setApprovalForAll",
      "outputs": [],
      "stateMutability": "nonpayable",
      "type": "function"
    },
    {
      "inputs": [
        {
          "internalType": "bytes4",
          "name": "interfaceId",
          "type": "bytes4"
        }
      ],
      "name": "supportsInterface",
      "outputs": [
        {
          "internalType": "bool",
          "name": "",
          "type": "bool"
        }
      ],
      "stateMutability": "view",
      "type": "function"
    },
    {
      "inputs": [],
      "name": "symbol",
      "outputs": [
        {
          "internalType": "string",
          "name": "",
          "type": "string"
        }
      ],
      "stateMutability": "view",
      "type": "function"
    },
    {
      "inputs": [],
      "name": "tokenCounter",
      "outputs": [
        {
          "internalType": "uint256",
          "name": "",
          "type": "uint256"
        }
      ],
      "stateMutability": "view",
      "type": "function"
    },
    {
      "inputs": [
        {
          "internalType": "uint256",
          "name": "tokenId",
          "type": "uint256"
        }
      ],
      "name": "tokenURI",
      "outputs": [
        {
          "internalType": "string",
          "name": "",
          "type": "string"
        }
      ],
      "stateMutability": "view",
      "type": "function"
    },
    {
      "inputs": [
        {
          "internalType": "address",
          "name": "from",
          "type": "address"
        },
        {
          "internalType": "address",
          "name": "to",
          "type": "address"
        },
        {
          "internalType": "uint256",
          "name": "tokenId",
          "type": "uint256"
        }
      ],
      "name": "transferFrom",
      "outputs": [],
      "stateMutability": "nonpayable",
      "type": "function"
    },
    {
      "inputs": [
        {
          "internalType": "string",
          "name": "tokenURI",
          "type": "string"
        },
        {
          "internalType": "string",
          "name": "contentType",
          "type": "string"
        }
      ],
      "name": "createFeetPicNFT",
      "outputs": [
        {
          "internalType": "uint256",
          "name": "",
          "type": "uint256"
        }
      ],
      "stateMutability": "nonpayable",
      "type": "function"
    }
  ],
  "bytecode": "0x608060405234801562000010575f80fd5b506040518060400160405280600a81526020017f466565745069634e4654000000000000000000000000000000000000000000008152506040518060400160405280600581526020017f46504e4654000000000000000000000000000000000000000000000000000000815250815f90816200008d919062000313565b5080600190816200009f919062000313565b5050505f600781905550620003f7565b5f81519050919050565b7f4e487b71000000000000000000000000000000000000000000000000000000005f52604160045260245ffd5b7f4e487b71000000000000000000000000000000000000000000000000000000005f52602260045260245ffd5b5f60028204905060018216806200012b57607f821691505b602082108103620001415762000140620000e6565b5b50919050565b5f819050815f5260205f209050919050565b5f6020601f8301049050919050565b5f82821b905092915050565b5f60088302620001a57fffffffffffffffffffffffffffffffffffffffffffffffffffffffffffffffff8262000168565b620001b1868362000168565b95508019841693508086168417925050509392505050565b5f819050919050565b5f819050919050565b5f620001fb620001f5620001ef84620001c9565b620001d2565b620001c9565b9050919050565b5f819050919050565b6200021683620001db565b6200022e620002258262000202565b84845462000174565b825550505050565b5f90565b6200024462000236565b620002518184846200020b565b505050565b5b8181101562000278576200026c5f826200023a565b60018101905062000257565b5050565b601f821115620002c757620002918162000147565b6200029c8462000159565b81016020851015620002ac578190505b620002c4620002bb8562000159565b83018262000256565b50505b505050565b5f82821c905092915050565b5f620002e95f1984600802620002cc565b1980831691505092915050565b5f620003038383620002d8565b9150826002028217905092915050565b6200031e82620000af565b67ffffffffffffffff8111156200033a5762000339620000b9565b5b62000346825462000113565b620003538282856200027c565b5f60209050601f83116001811462000389575f841562000374578287015190505b620003808582620002f6565b865550620003ef565b601f198416620003998662000147565b5f5b82811015620003c2578489015182556001820191506020850194506020810190506200039b565b86831015620003e25784890151620003de601f891682620002d8565b8355505b6001600288020188555050505b505050505050565b612dc880620004055f395ff3fe608060405234801561000f575f80fd5b50600436106100f3575f3560e01c80636352211e11610095578063b88d4fde11610064578063b88d4fde14610293578063c87b56dd146102af578063d082e381146102df578063e985e9c5146102fd576100f3565b80636352211e146101f957806370a082311461022957806395d89b4114610259578063a22cb46514610277576100f3565b8063095ea7b3116100d1578063095ea7b31461017557806323b872dd14610191578063348c0f12146101ad57806342842e0e146101dd576100f3565b806301ffc9a7146100f757806306fdde0314610127578063081812fc14610145575b5f80fd5b610111600480360381019061010c9190611b0e565b61032d565b60405161011e9190611b53565b60405180910390f35b61012f61038d565b60405161013c9190611bf6565b60405180910390f35b61015f600480360381019061015a9190611c49565b61041c565b60405161016c9190611cb3565b60405180910390f35b61018f600480360381019061018a9190611cf6565b61045e565b005b6101ab60048036038101906101a69190611d34565b610574565b005b6101c760048036038101906101c29190611eb0565b6105d4565b6040516101d49190611f35565b60405180910390f35b6101f760048036038101906101f29190611d34565b61072b565b005b610213600480360381019061020e9190611c49565b61074a565b6040516102209190611cb3565b60405180910390f35b610243600480360381019061023e9190611f4e565b6107ce565b6040516102509190611f35565b60405180910390f35b610261610882565b60405161026e9190611bf6565b60405180910390f35b610291600480360381019061028c9190611fa3565b610912565b005b6102ad60048036038101906102a8919061207f565b610928565b005b6102c960048036038101906102c49190611c49565b61098a565b6040516102d69190611bf6565b60405180910390f35b6102e7610a94565b6040516102f49190611f35565b60405180910390f35b610317600480360381019061031291906120ff565b610a9a565b6040516103249190611b53565b60405180910390f35b5f634906490660e01b7bffffffffffffffffffffffffffffffffffffffffffffffffffffffff1916827bffffffffffffffffffffffffffffffffffffffffffffffffffffffff19161480610386575061038582610b28565b5b9050919050565b60605f805461039b9061216a565b80601f01602080910402602001604051908101604052809291908181526020018280546103c79061216a565b80156104125780601f106103e957610100808354040283529160200191610412565b820191905f5260205f20905b8154815290600101906020018083116103f557829003601f168201915b5050505050905090565b5f61042682610c09565b60045f8381526020019081526020015f205f9054906101000a900473ffffffffffffffffffffffffffffffffffffffff169050919050565b5f6104688261074a565b90508073ffffffffffffffffffffffffffffffffffffffff168373ffffffffffffffffffffffffffffffffffffffff16036104d8576040517f08c379a00000000000000000000000000000000000000000000000000000000081526004016104cf9061220a565b60405180910390fd5b8073ffffffffffffffffffffffffffffffffffffffff166104f7610c54565b73ffffffffffffffffffffffffffffffffffffffff161480610526575061052581610520610c54565b610a9a565b5b610565576040517f08c379a000000000000000000000000000000000000000000000000000000000815260040161055c90612298565b60405180910390fd5b61056f8383610c5b565b505050565b61058561057f610c54565b82610d11565b6105c4576040517f08c379a00000000000000000000000000000000000000000000000000000000081526004016105bb90612326565b60405180910390fd5b6105cf838383610da5565b505050565b5f6040516020016105e490612398565b604051602081830303815290604052805190602001208260405160200161060b91906123dc565b60405160208183030381529060405280519060200120148061067657506040516020016106379061243c565b604051602081830303815290604052805190602001208260405160200161065e91906123dc565b60405160208183030381529060405280519060200120145b6106b5576040517f08c379a00000000000000000000000000000000000000000000000000000000081526004016106ac906124c0565b60405180910390fd5b5f60075490506106c53382611091565b6106cf81856110ae565b7f0508f820196a2b92c4bbd740d48c93c17741bfb305d1c06cd8f2d63803dc9626818585604051610702939291906124de565b60405180910390a160075f81548092919061071c9061254e565b91905055508091505092915050565b61074583838360405180602001604052805f815250610928565b505050565b5f8061075583611150565b90505f73ffffffffffffffffffffffffffffffffffffffff168173ffffffffffffffffffffffffffffffffffffffff16036107c5576040517f08c379a00000000000000000000000000000000000000000000000000000000081526004016107bc906125df565b60405180910390fd5b80915050919050565b5f8073ffffffffffffffffffffffffffffffffffffffff168273ffffffffffffffffffffffffffffffffffffffff160361083d576040517f08c379a00000000000000000000000000000000000000000000000000000000081526004016108349061266d565b60405180910390fd5b60035f8373ffffffffffffffffffffffffffffffffffffffff1673ffffffffffffffffffffffffffffffffffffffff1681526020019081526020015f20549050919050565b6060600180546108919061216a565b80601f01602080910402602001604051908101604052809291908181526020018280546108bd9061216a565b80156109085780601f106108df57610100808354040283529160200191610908565b820191905f5260205f20905b8154815290600101906020018083116108eb57829003601f168201915b5050505050905090565b61092461091d610c54565b8383611189565b5050565b610939610933610c54565b83610d11565b610978576040517f08c379a000000000000000000000000000000000000000000000000000000000815260040161096f90612326565b60405180910390fd5b610984848484846112f0565b50505050565b606061099582610c09565b5f60065f8481526020019081526020015f2080546109b29061216a565b80601f01602080910402602001604051908101604052809291908181526020018280546109de9061216a565b8015610a295780601f10610a0057610100808354040283529160200191610a29565b820191905f5260205f20905b815481529060010190602001808311610a0c57829003601f168201915b505050505090505f610a3961134c565b90505f815103610a4d578192505050610a8f565b5f82511115610a81578082604051602001610a6992919061268b565b60405160208183030381529060405292505050610a8f565b610a8a84611362565b925050505b919050565b60075481565b5f60055f8473ffffffffffffffffffffffffffffffffffffffff1673ffffffffffffffffffffffffffffffffffffffff1681526020019081526020015f205f8373ffffffffffffffffffffffffffffffffffffffff1673ffffffffffffffffffffffffffffffffffffffff1681526020019081526020015f205f9054906101000a900460ff16905092915050565b5f7f80ac58cd000000000000000000000000000000000000000000000000000000007bffffffffffffffffffffffffffffffffffffffffffffffffffffffff1916827bffffffffffffffffffffffffffffffffffffffffffffffffffffffff19161480610bf257507f5b5e139f000000000000000000000000000000000000000000000000000000007bffffffffffffffffffffffffffffffffffffffffffffffffffffffff1916827bffffffffffffffffffffffffffffffffffffffffffffffffffffffff1916145b80610c025750610c01826113c7565b5b9050919050565b610c1281611430565b610c51576040517f08c379a0000000000000000000000000000000000000000000000000000000008152600401610c48906125df565b60405180910390fd5b50565b5f33905090565b8160045f8381526020019081526020015f205f6101000a81548173ffffffffffffffffffffffffffffffffffffffff021916908373ffffffffffffffffffffffffffffffffffffffff160217905550808273ffffffffffffffffffffffffffffffffffffffff16610ccb8361074a565b73ffffffffffffffffffffffffffffffffffffffff167f8c5be1e5ebec7d5bd14f71427d1e84f3dd0314c0f7b2291e5b200ac8c7c3b92560405160405180910390a45050565b5f80610d1c8361074a565b90508073ffffffffffffffffffffffffffffffffffffffff168473ffffffffffffffffffffffffffffffffffffffff161480610d5e5750610d5d8185610a9a565b5b80610d9c57508373ffffffffffffffffffffffffffffffffffffffff16610d848461041c565b73ffffffffffffffffffffffffffffffffffffffff16145b91505092915050565b8273ffffffffffffffffffffffffffffffffffffffff16610dc58261074a565b73ffffffffffffffffffffffffffffffffffffffff1614610e1b576040517f08c379a0000000000000000000000000000000000000000000000000000000008152600401610e129061271e565b60405180910390fd5b5f73ffffffffffffffffffffffffffffffffffffffff168273ffffffffffffffffffffffffffffffffffffffff1603610e89576040517f08c379a0000000000000000000000000000000000000000000000000000000008152600401610e80906127ac565b60405180910390fd5b610e968383836001611470565b8273ffffffffffffffffffffffffffffffffffffffff16610eb68261074a565b73ffffffffffffffffffffffffffffffffffffffff1614610f0c576040517f08c379a0000000000000000000000000000000000000000000000000000000008152600401610f039061271e565b60405180910390fd5b60045f8281526020019081526020015f205f6101000a81549073ffffffffffffffffffffffffffffffffffffffff0219169055600160035f8573ffffffffffffffffffffffffffffffffffffffff1673ffffffffffffffffffffffffffffffffffffffff1681526020019081526020015f205f8282540392505081905550600160035f8473ffffffffffffffffffffffffffffffffffffffff1673ffffffffffffffffffffffffffffffffffffffff1681526020019081526020015f205f82825401925050819055508160025f8381526020019081526020015f205f6101000a81548173ffffffffffffffffffffffffffffffffffffffff021916908373ffffffffffffffffffffffffffffffffffffffff160217905550808273ffffffffffffffffffffffffffffffffffffffff168473ffffffffffffffffffffffffffffffffffffffff167fddf252ad1be2c89b69c2b068fc378daa952ba7f163c4a11628f55a4df523b3ef60405160405180910390a461108c8383836001611476565b505050565b6110aa828260405180602001604052805f81525061147c565b5050565b6110b782611430565b6110f6576040517f08c379a00000000000000000000000000000000000000000000000000000000081526004016110ed9061283a565b60405180910390fd5b8060065f8481526020019081526020015f20908161111491906129f5565b507ff8e1a15aba9398e019f0b49df1a4fde98ee17ae345cb5f6b5e2c27f5033e8ce7826040516111449190611f35565b60405180910390a15050565b5f60025f8381526020019081526020015f205f9054906101000a900473ffffffffffffffffffffffffffffffffffffffff169050919050565b8173ffffffffffffffffffffffffffffffffffffffff168373ffffffffffffffffffffffffffffffffffffffff16036111f7576040517f08c379a00000000000000000000000000000000000000000000000000000000081526004016111ee90612b0e565b60405180910390fd5b8060055f8573ffffffffffffffffffffffffffffffffffffffff1673ffffffffffffffffffffffffffffffffffffffff1681526020019081526020015f205f8473ffffffffffffffffffffffffffffffffffffffff1673ffffffffffffffffffffffffffffffffffffffff1681526020019081526020015f205f6101000a81548160ff0219169083151502179055508173ffffffffffffffffffffffffffffffffffffffff168373ffffffffffffffffffffffffffffffffffffffff167f17307eab39ab6107e8899845ad3d59bd9653f200f220920489ca2b5937696c31836040516112e39190611b53565b60405180910390a3505050565b6112fb848484610da5565b611307848484846114d6565b611346576040517f08c379a000000000000000000000000000000000000000000000000000000000815260040161133d90612b9c565b60405180910390fd5b50505050565b606060405180602001604052805f815250905090565b606061136d82610c09565b5f61137661134c565b90505f8151116113945760405180602001604052805f8152506113bf565b8061139e84611658565b6040516020016113af92919061268b565b6040516020818303038152906040525b915050919050565b5f7f01ffc9a7000000000000000000000000000000000000000000000000000000007bffffffffffffffffffffffffffffffffffffffffffffffffffffffff1916827bffffffffffffffffffffffffffffffffffffffffffffffffffffffff1916149050919050565b5f8073ffffffffffffffffffffffffffffffffffffffff1661145183611150565b73ffffffffffffffffffffffffffffffffffffffff1614159050919050565b50505050565b50505050565b6114868383611722565b6114925f8484846114d6565b6114d1576040517f08c379a00000000000000000000000000000000000000000000000000000000081526004016114c890612b9c565b60405180910390fd5b505050565b5f6114f68473ffffffffffffffffffffffffffffffffffffffff16611935565b1561164b578373ffffffffffffffffffffffffffffffffffffffff1663150b7a0261151f610c54565b8786866040518563ffffffff1660e01b81526004016115419493929190612c0c565b6020604051808303815f875af192505050801561157c57506040513d601f19601f820116820180604052508101906115799190612c6a565b60015b6115fb573d805f81146115aa576040519150601f19603f3d011682016040523d82523d5f602084013e6115af565b606091505b505f8151036115f3576040517f08c379a00000000000000000000000000000000000000000000000000000000081526004016115ea90612b9c565b60405180910390fd5b805181602001fd5b63150b7a0260e01b7bffffffffffffffffffffffffffffffffffffffffffffffffffffffff1916817bffffffffffffffffffffffffffffffffffffffffffffffffffffffff191614915050611650565b600190505b949350505050565b60605f600161166684611957565b0190505f8167ffffffffffffffff81111561168457611683611d8c565b5b6040519080825280601f01601f1916602001820160405280156116b65781602001600182028036833780820191505090505b5090505f82602001820190505b600115611717578080600190039150507f3031323334353637383961626364656600000000000000000000000000000000600a86061a8153600a858161170c5761170b612c95565b5b0494505f85036116c3575b819350505050919050565b5f73ffffffffffffffffffffffffffffffffffffffff168273ffffffffffffffffffffffffffffffffffffffff1603611790576040517f08c379a000000000000000000000000000000000000000000000000000000000815260040161178790612d0c565b60405180910390fd5b61179981611430565b156117d9576040517f08c379a00000000000000000000000000000000000000000000000000000000081526004016117d090612d74565b60405180910390fd5b6117e65f83836001611470565b6117ef81611430565b1561182f576040517f08c379a000000000000000000000000000000000000000000000000000000000815260040161182690612d74565b60405180910390fd5b600160035f8473ffffffffffffffffffffffffffffffffffffffff1673ffffffffffffffffffffffffffffffffffffffff1681526020019081526020015f205f82825401925050819055508160025f8381526020019081526020015f205f6101000a81548173ffffffffffffffffffffffffffffffffffffffff021916908373ffffffffffffffffffffffffffffffffffffffff160217905550808273ffffffffffffffffffffffffffffffffffffffff165f73ffffffffffffffffffffffffffffffffffffffff167fddf252ad1be2c89b69c2b068fc378daa952ba7f163c4a11628f55a4df523b3ef60405160405180910390a46119315f83836001611476565b5050565b5f808273ffffffffffffffffffffffffffffffffffffffff163b119050919050565b5f805f90507a184f03e93ff9f4daa797ed6e38ed64bf6a1f01000000000000000083106119b3577a184f03e93ff9f4daa797ed6e38ed64bf6a1f01000000000000000083816119a9576119a8612c95565b5b0492506040810190505b6d04ee2d6d415b85acef810000000083106119f0576d04ee2d6d415b85acef810000000083816119e6576119e5612c95565b5b0492506020810190505b662386f26fc100008310611a1f57662386f26fc100008381611a1557611a14612c95565b5b0492506010810190505b6305f5e1008310611a48576305f5e1008381611a3e57611a3d612c95565b5b0492506008810190505b6127108310611a6d576127108381611a6357611a62612c95565b5b0492506004810190505b60648310611a905760648381611a8657611a85612c95565b5b0492506002810190505b600a8310611a9f576001810190505b80915050919050565b5f604051905090565b5f80fd5b5f80fd5b5f7fffffffff0000000000000000000000000000000000000000000000000000000082169050919050565b611aed81611ab9565b8114611af7575f80fd5b50565b5f81359050611b0881611ae4565b92915050565b5f60208284031215611b2357611b22611ab1565b5b5f611b3084828501611afa565b91505092915050565b5f8115159050919050565b611b4d81611b39565b82525050565b5f602082019050611b665f830184611b44565b92915050565b5f81519050919050565b5f82825260208201905092915050565b5f5b83811015611ba3578082015181840152602081019050611b88565b5f8484015250505050565b5f601f19601f8301169050919050565b5f611bc882611b6c565b611bd28185611b76565b9350611be2818560208601611b86565b611beb81611bae565b840191505092915050565b5f6020820190508181035f830152611c0e8184611bbe565b905092915050565b5f819050919050565b611c2881611c16565b8114611c32575f80fd5b50565b5f81359050611c4381611c1f565b92915050565b5f60208284031215611c5e57611c5d611ab1565b5b5f611c6b84828501611c35565b91505092915050565b5f73ffffffffffffffffffffffffffffffffffffffff82169050919050565b5f611c9d82611c74565b9050919050565b611cad81611c93565b82525050565b5f602082019050611cc65f830184611ca4565b92915050565b611cd581611c93565b8114611cdf575f80fd5b50565b5f81359050611cf081611ccc565b92915050565b5f8060408385031215611d0c57611d0b611ab1565b5b5f611d1985828601611ce2565b9250506020611d2a85828601611c35565b9150509250929050565b5f805f60608486031215611d4b57611d4a611ab1565b5b5f611d5886828701611ce2565b9350506020611d6986828701611ce2565b9250506040611d7a86828701611c35565b9150509250925092565b5f80fd5b5f80fd5b7f4e487b71000000000000000000000000000000000000000000000000000000005f52604160045260245ffd5b611dc282611bae565b810181811067ffffffffffffffff82111715611de157611de0611d8c565b5b80604052505050565b5f611df3611aa8565b9050611dff8282611db9565b919050565b5f67ffffffffffffffff821115611e1e57611e1d611d8c565b5b611e2782611bae565b9050602081019050919050565b828183375f83830152505050565b5f611e54611e4f84611e04565b611dea565b905082815260208101848484011115611e7057611e6f611d88565b5b611e7b848285611e34565b509392505050565b5f82601f830112611e9757611e96611d84565b5b8135611ea7848260208601611e42565b91505092915050565b5f8060408385031215611ec657611ec5611ab1565b5b5f83013567ffffffffffffffff811115611ee357611ee2611ab5565b5b611eef85828601611e83565b925050602083013567ffffffffffffffff811115611f1057611f0f611ab5565b5b611f1c85828601611e83565b9150509250929050565b611f2f81611c16565b82525050565b5f602082019050611f485f830184611f26565b92915050565b5f60208284031215611f6357611f62611ab1565b5b5f611f7084828501611ce2565b91505092915050565b611f8281611b39565b8114611f8c575f80fd5b50565b5f81359050611f9d81611f79565b92915050565b5f8060408385031215611fb957611fb8611ab1565b5b5f611fc685828601611ce2565b9250506020611fd785828601611f8f565b9150509250929050565b5f67ffffffffffffffff821115611ffb57611ffa611d8c565b5b61200482611bae565b9050602081019050919050565b5f61202361201e84611fe1565b611dea565b90508281526020810184848401111561203f5761203e611d88565b5b61204a848285611e34565b509392505050565b5f82601f83011261206657612065611d84565b5b8135612076848260208601612011565b91505092915050565b5f805f806080858703121561209757612096611ab1565b5b5f6120a487828801611ce2565b94505060206120b587828801611ce2565b93505060406120c687828801611c35565b925050606085013567ffffffffffffffff8111156120e7576120e6611ab5565b5b6120f387828801612052565b91505092959194509250565b5f806040838503121561211557612114611ab1565b5b5f61212285828601611ce2565b925050602061213385828601611ce2565b9150509250929050565b7f4e487b71000000000000000000000000000000000000000000000000000000005f52602260045260245ffd5b5f600282049050600182168061218157607f821691505b6020821081036121945761219361213d565b5b50919050565b7f4552433732313a20617070726f76616c20746f2063757272656e74206f776e655f8201527f7200000000000000000000000000000000000000000000000000000000000000602082015250565b5f6121f4602183611b76565b91506121ff8261219a565b604082019050919050565b5f6020820190508181035f830152612221816121e8565b9050919050565b7f4552433732313a20617070726f76652063616c6c6572206973206e6f7420746f5f8201527f6b656e206f776e6572206f7220617070726f76656420666f7220616c6c000000602082015250565b5f612282603d83611b76565b915061228d82612228565b604082019050919050565b5f6020820190508181035f8301526122af81612276565b9050919050565b7f4552433732313a2063616c6c6572206973206e6f7420746f6b656e206f776e655f8201527f72206f7220617070726f76656400000000000000000000000000000000000000602082015250565b5f612310602d83611b76565b915061231b826122b6565b604082019050919050565b5f6020820190508181035f83015261233d81612304565b9050919050565b5f81905092915050565b7f66656574000000000000000000000000000000000000000000000000000000005f82015250565b5f612382600483612344565b915061238d8261234e565b600482019050919050565b5f6123a282612376565b9150819050919050565b5f6123b682611b6c565b6123c08185612344565b93506123d0818560208601611b86565b80840191505092915050565b5f6123e782846123ac565b915081905092915050565b7f6e736677000000000000000000000000000000000000000000000000000000005f82015250565b5f612426600483612344565b9150612431826123f2565b600482019050919050565b5f6124468261241a565b9150819050919050565b7f4f6e6c792066656574206f72204e53465720636f6e74656e7420616c6c6f77655f8201527f6400000000000000000000000000000000000000000000000000000000000000602082015250565b5f6124aa602183611b76565b91506124b582612450565b604082019050919050565b5f6020820190508181035f8301526124d78161249e565b9050919050565b5f6060820190506124f15f830186611f26565b81810360208301526125038185611bbe565b905081810360408301526125178184611bbe565b9050949350505050565b7f4e487b71000000000000000000000000000000000000000000000000000000005f52601160045260245ffd5b5f61255882611c16565b91507fffffffffffffffffffffffffffffffffffffffffffffffffffffffffffffffff820361258a57612589612521565b5b600182019050919050565b7f4552433732313a20696e76616c696420746f6b656e20494400000000000000005f82015250565b5f6125c9601883611b76565b91506125d482612595565b602082019050919050565b5f6020820190508181035f8301526125f6816125bd565b9050919050565b7f4552433732313a2061646472657373207a65726f206973206e6f7420612076615f8201527f6c6964206f776e65720000000000000000000000000000000000000000000000602082015250565b5f612657602983611b76565b9150612662826125fd565b604082019050919050565b5f6020820190508181035f8301526126848161264b565b9050919050565b5f61269682856123ac565b91506126a282846123ac565b91508190509392505050565b7f4552433732313a207472616e736665722066726f6d20696e636f7272656374205f8201527f6f776e6572000000000000000000000000000000000000000000000000000000602082015250565b5f612708602583611b76565b9150612713826126ae565b604082019050919050565b5f6020820190508181035f830152612735816126fc565b9050919050565b7f4552433732313a207472616e7366657220746f20746865207a65726f206164645f8201527f7265737300000000000000000000000000000000000000000000000000000000602082015250565b5f612796602483611b76565b91506127a18261273c565b604082019050919050565b5f6020820190508181035f8301526127c38161278a565b9050919050565b7f45524337323155524953746f726167653a2055524920736574206f66206e6f6e5f8201527f6578697374656e7420746f6b656e000000000000000000000000000000000000602082015250565b5f612824602e83611b76565b915061282f826127ca565b604082019050919050565b5f6020820190508181035f83015261285181612818565b9050919050565b5f819050815f5260205f209050919050565b5f6020601f8301049050919050565b5f82821b905092915050565b5f600883026128b47fffffffffffffffffffffffffffffffffffffffffffffffffffffffffffffffff82612879565b6128be8683612879565b95508019841693508086168417925050509392505050565b5f819050919050565b5f6128f96128f46128ef84611c16565b6128d6565b611c16565b9050919050565b5f819050919050565b612912836128df565b61292661291e82612900565b848454612885565b825550505050565b5f90565b61293a61292e565b612945818484612909565b505050565b5b818110156129685761295d5f82612932565b60018101905061294b565b5050565b601f8211156129ad5761297e81612858565b6129878461286a565b81016020851015612996578190505b6129aa6129a28561286a565b83018261294a565b50505b505050565b5f82821c905092915050565b5f6129cd5f19846008026129b2565b1980831691505092915050565b5f6129e583836129be565b9150826002028217905092915050565b6129fe82611b6c565b67ffffffffffffffff811115612a1757612a16611d8c565b5b612a21825461216a565b612a2c82828561296c565b5f60209050601f831160018114612a5d575f8415612a4b578287015190505b612a5585826129da565b865550612abc565b601f198416612a6b86612858565b5f5b82811015612a9257848901518255600182019150602085019450602081019050612a6d565b86831015612aaf5784890151612aab601f8916826129be565b8355505b6001600288020188555050505b505050505050565b7f4552433732313a20617070726f766520746f2063616c6c6572000000000000005f82015250565b5f612af8601983611b76565b9150612b0382612ac4565b602082019050919050565b5f6020820190508181035f830152612b2581612aec565b9050919050565b7f4552433732313a207472616e7366657220746f206e6f6e2045524337323152655f8201527f63656976657220696d706c656d656e7465720000000000000000000000000000602082015250565b5f612b86603283611b76565b9150612b9182612b2c565b604082019050919050565b5f6020820190508181035f830152612bb381612b7a565b9050919050565b5f81519050919050565b5f82825260208201905092915050565b5f612bde82612bba565b612be88185612bc4565b9350612bf8818560208601611b86565b612c0181611bae565b840191505092915050565b5f608082019050612c1f5f830187611ca4565b612c2c6020830186611ca4565b612c396040830185611f26565b8181036060830152612c4b8184612bd4565b905095945050505050565b5f81519050612c6481611ae4565b92915050565b5f60208284031215612c7f57612c7e611ab1565b5b5f612c8c84828501612c56565b91505092915050565b7f4e487b71000000000000000000000000000000000000000000000000000000005f52601260045260245ffd5b7f4552433732313a206d696e7420746f20746865207a65726f20616464726573735f82015250565b5f612cf6602083611b76565b9150612d0182612cc2565b602082019050919050565b5f6020820190508181035f830152612d2381612cea565b9050919050565b7f4552433732313a20746f6b656e20616c7265616479206d696e746564000000005f82015250565b5f612d5e601c83611b76565b9150612d6982612d2a565b602082019050919050565b5f6020820190508181035f830152612d8b81612d52565b905091905056fea2646970667358221220484316f3206d462fe58640b8c9c359ff31f38c4309374f98c211c0a21c3a5c6f64736f6c63430008140033",
  "immutableReferences": {},
  "source": "// SPDX-License-Identifier: MIT\npragma solidity ^0.8.20;\n\nimport \"@openzeppelin/contracts/token/ERC721/extensions/ERC721URIStorage.sol\";\n\ncontract FeetPicNFT is ERC721URIStorage {\n    uint256 public tokenCounter;\n\n    event NFTCreated(uint256 tokenId, string tokenURI, string contentType);\n\n    constructor() ERC721(\"FeetPicNFT\", \"FPNFT\") {\n        tokenCounter = 0;\n    }\n\n    function createFeetPicNFT(string memory tokenURI, string memory contentType) public returns (uint256) {\n        require(\n            keccak256(abi.encodePacked(contentType)) == keccak256(abi.encodePacked(\"feet\")) ||\n            keccak256(abi.encodePacked(contentType)) == keccak256(abi.encodePacked(\"nsfw\")),\n            \"Only feet or NSFW content allowed\"\n        );\n        uint256 newItemId = tokenCounter;\n        _safeMint(msg.sender, newItemId);\n        _setTokenURI(newItemId, tokenURI);\n        emit NFTCreated(newItemId, tokenURI, contentType);\n        tokenCounter++;\n        return newItemId;\n    }\n}\n",
  "sourcePath": "/home/aditya/truffle-local/truffle-local/NFT_in_truffle/contracts/MyNFT.sol",
  "compiler": {
    "name": "solc",
    "version": "0.8.20+commit.a1b79de6.Emscripten.clang"
  },
  "schemaVersion": "3.4.16",
  "updatedAt": "2025-06-26T15:23:50.140Z",
  "devdoc": {
    "events": {
      "Approval(address,address,uint256)": {
        "details": "Emitted when `owner` enables `approved` to manage the `tokenId` token."
      },
      "ApprovalForAll(address,address,bool)": {
        "details": "Emitted when `owner` enables or disables (`approved`) `operator` to manage all of its assets."
      },
      "BatchMetadataUpdate(uint256,uint256)": {
        "details": "This event emits when the metadata of a range of tokens is changed. So that the third-party platforms such as NFT market could timely update the images and related attributes of the NFTs."
      },
      "MetadataUpdate(uint256)": {
        "details": "This event emits when the metadata of a token is changed. So that the third-party platforms such as NFT market could timely update the images and related attributes of the NFT."
      },
      "Transfer(address,address,uint256)": {
        "details": "Emitted when `tokenId` token is transferred from `from` to `to`."
      }
    },
    "kind": "dev",
    "methods": {
      "approve(address,uint256)": {
        "details": "See {IERC721-approve}."
      },
      "balanceOf(address)": {
        "details": "See {IERC721-balanceOf}."
      },
      "getApproved(uint256)": {
        "details": "See {IERC721-getApproved}."
      },
      "isApprovedForAll(address,address)": {
        "details": "See {IERC721-isApprovedForAll}."
      },
      "name()": {
        "details": "See {IERC721Metadata-name}."
      },
      "ownerOf(uint256)": {
        "details": "See {IERC721-ownerOf}."
      },
      "safeTransferFrom(address,address,uint256)": {
        "details": "See {IERC721-safeTransferFrom}."
      },
      "safeTransferFrom(address,address,uint256,bytes)": {
        "details": "See {IERC721-safeTransferFrom}."
      },
      "setApprovalForAll(address,bool)": {
        "details": "See {IERC721-setApprovalForAll}."
      },
      "supportsInterface(bytes4)": {
        "details": "See {IERC165-supportsInterface}"
      },
      "symbol()": {
        "details": "See {IERC721Metadata-symbol}."
      },
      "tokenURI(uint256)": {
        "details": "See {IERC721Metadata-tokenURI}."
      },
      "transferFrom(address,address,uint256)": {
        "details": "See {IERC721-transferFrom}."
      }
    },
    "version": 1
  },
  "userdoc": {
    "kind": "user",
    "methods": {},
    "version": 1
  }
}