{
  "contractName": "MyNFT",
  "abi": [
    {
      "inputs": [],
      "stateMutability": "nonpayable",
      "type": "constructor"
    },
    {
      "inputs": [
        {
          "internalType": "address",
          "name": "sender",
          "type": "address"
        },
        {
          "internalType": "uint256",
          "name": "tokenId",
          "type": "uint256"
        },
        {
          "internalType": "address",
          "name": "owner",
          "type": "address"
        }
      ],
      "name": "ERC721IncorrectOwner",
      "type": "error"
    },
    {
      "inputs": [
        {
          "internalType": "address",
          "name": "operator",
          "type": "address"
        },
        {
          "internalType": "uint256",
          "name": "tokenId",
          "type": "uint256"
        }
      ],
      "name": "ERC721InsufficientApproval",
      "type": "error"
    },
    {
      "inputs": [
        {
          "internalType": "address",
          "name": "approver",
          "type": "address"
        }
      ],
      "name": "ERC721InvalidApprover",
      "type": "error"
    },
    {
      "inputs": [
        {
          "internalType": "address",
          "name": "operator",
          "type": "address"
        }
      ],
      "name": "ERC721InvalidOperator",
      "type": "error"
    },
    {
      "inputs": [
        {
          "internalType": "address",
          "name": "owner",
          "type": "address"
        }
      ],
      "name": "ERC721InvalidOwner",
      "type": "error"
    },
    {
      "inputs": [
        {
          "internalType": "address",
          "name": "receiver",
          "type": "address"
        }
      ],
      "name": "ERC721InvalidReceiver",
      "type": "error"
    },
    {
      "inputs": [
        {
          "internalType": "address",
          "name": "sender",
          "type": "address"
        }
      ],
      "name": "ERC721InvalidSender",
      "type": "error"
    },
    {
      "inputs": [
        {
          "internalType": "uint256",
          "name": "tokenId",
          "type": "uint256"
        }
      ],
      "name": "ERC721NonexistentToken",
      "type": "error"
    },
    {
      "anonymous": false,
      "inputs": [
        {
          "indexed": true,
          "internalType": "address",
          "name": "owner",
          "type": "address"
        },
        {
          "indexed": true,
          "internalType": "address",
          "name": "approved",
          "type": "address"
        },
        {
          "indexed": true,
          "internalType": "uint256",
          "name": "tokenId",
          "type": "uint256"
        }
      ],
      "name": "Approval",
      "type": "event"
    },
    {
      "anonymous": false,
      "inputs": [
        {
          "indexed": true,
          "internalType": "address",
          "name": "owner",
          "type": "address"
        },
        {
          "indexed": true,
          "internalType": "address",
          "name": "operator",
          "type": "address"
        },
        {
          "indexed": false,
          "internalType": "bool",
          "name": "approved",
          "type": "bool"
        }
      ],
      "name": "ApprovalForAll",
      "type": "event"
    },
    {
      "anonymous": false,
      "inputs": [
        {
          "indexed": false,
          "internalType": "uint256",
          "name": "_fromTokenId",
          "type": "uint256"
        },
        {
          "indexed": false,
          "internalType": "uint256",
          "name": "_toTokenId",
          "type": "uint256"
        }
      ],
      "name": "BatchMetadataUpdate",
      "type": "event"
    },
    {
      "anonymous": false,
      "inputs": [
        {
          "indexed": false,
          "internalType": "uint256",
          "name": "_tokenId",
          "type": "uint256"
        }
      ],
      "name": "MetadataUpdate",
      "type": "event"
    },
    {
      "anonymous": false,
      "inputs": [
        {
          "indexed": false,
          "internalType": "uint256",
          "name": "tokenId",
          "type": "uint256"
        },
        {
          "indexed": false,
          "internalType": "string",
          "name": "tokenURI",
          "type": "string"
        }
      ],
      "name": "NFTCreated",
      "type": "event"
    },
    {
      "anonymous": false,
      "inputs": [
        {
          "indexed": true,
          "internalType": "address",
          "name": "from",
          "type": "address"
        },
        {
          "indexed": true,
          "internalType": "address",
          "name": "to",
          "type": "address"
        },
        {
          "indexed": true,
          "internalType": "uint256",
          "name": "tokenId",
          "type": "uint256"
        }
      ],
      "name": "Transfer",
      "type": "event"
    },
    {
      "inputs": [
        {
          "internalType": "address",
          "name": "to",
          "type": "address"
        },
        {
          "internalType": "uint256",
          "name": "tokenId",
          "type": "uint256"
        }
      ],
      "name": "approve",
      "outputs": [],
      "stateMutability": "nonpayable",
      "type": "function"
    },
    {
      "inputs": [
        {
          "internalType": "address",
          "name": "owner",
          "type": "address"
        }
      ],
      "name": "balanceOf",
      "outputs": [
        {
          "internalType": "uint256",
          "name": "",
          "type": "uint256"
        }
      ],
      "stateMutability": "view",
      "type": "function",
      "constant": true
    },
    {
      "inputs": [
        {
          "internalType": "uint256",
          "name": "tokenId",
          "type": "uint256"
        }
      ],
      "name": "getApproved",
      "outputs": [
        {
          "internalType": "address",
          "name": "",
          "type": "address"
        }
      ],
      "stateMutability": "view",
      "type": "function",
      "constant": true
    },
    {
      "inputs": [
        {
          "internalType": "address",
          "name": "owner",
          "type": "address"
        },
        {
          "internalType": "address",
          "name": "operator",
          "type": "address"
        }
      ],
      "name": "isApprovedForAll",
      "outputs": [
        {
          "internalType": "bool",
          "name": "",
          "type": "bool"
        }
      ],
      "stateMutability": "view",
      "type": "function",
      "constant": true
    },
    {
      "inputs": [],
      "name": "name",
      "outputs": [
        {
          "internalType": "string",
          "name": "",
          "type": "string"
        }
      ],
      "stateMutability": "view",
      "type": "function",
      "constant": true
    },
    {
      "inputs": [
        {
          "internalType": "uint256",
          "name": "tokenId",
          "type": "uint256"
        }
      ],
      "name": "ownerOf",
      "outputs": [
        {
          "internalType": "address",
          "name": "",
          "type": "address"
        }
      ],
      "stateMutability": "view",
      "type": "function",
      "constant": true
    },
    {
      "inputs": [
        {
          "internalType": "address",
          "name": "from",
          "type": "address"
        },
        {
          "internalType": "address",
          "name": "to",
          "type": "address"
        },
        {
          "internalType": "uint256",
          "name": "tokenId",
          "type": "uint256"
        }
      ],
      "name": "safeTransferFrom",
      "outputs": [],
      "stateMutability": "nonpayable",
      "type": "function"
    },
    {
      "inputs": [
        {
          "internalType": "address",
          "name": "from",
          "type": "address"
        },
        {
          "internalType": "address",
          "name": "to",
          "type": "address"
        },
        {
          "internalType": "uint256",
          "name": "tokenId",
          "type": "uint256"
        },
        {
          "internalType": "bytes",
          "name": "data",
          "type": "bytes"
        }
      ],
      "name": "safeTransferFrom",
      "outputs": [],
      "stateMutability": "nonpayable",
      "type": "function"
    },
    {
      "inputs": [
        {
          "internalType": "address",
          "name": "operator",
          "type": "address"
        },
        {
          "internalType": "bool",
          "name": "approved",
          "type": "bool"
        }
      ],
      "name": "setApprovalForAll",
      "outputs": [],
      "stateMutability": "nonpayable",
      "type": "function"
    },
    {
      "inputs": [
        {
          "internalType": "bytes4",
          "name": "interfaceId",
          "type": "bytes4"
        }
      ],
      "name": "supportsInterface",
      "outputs": [
        {
          "internalType": "bool",
          "name": "",
          "type": "bool"
        }
      ],
      "stateMutability": "view",
      "type": "function",
      "constant": true
    },
    {
      "inputs": [],
      "name": "symbol",
      "outputs": [
        {
          "internalType": "string",
          "name": "",
          "type": "string"
        }
      ],
      "stateMutability": "view",
      "type": "function",
      "constant": true
    },
    {
      "inputs": [],
      "name": "tokenCounter",
      "outputs": [
        {
          "internalType": "uint256",
          "name": "",
          "type": "uint256"
        }
      ],
      "stateMutability": "view",
      "type": "function",
      "constant": true
    },
    {
      "inputs": [
        {
          "internalType": "uint256",
          "name": "tokenId",
          "type": "uint256"
        }
      ],
      "name": "tokenURI",
      "outputs": [
        {
          "internalType": "string",
          "name": "",
          "type": "string"
        }
      ],
      "stateMutability": "view",
      "type": "function",
      "constant": true
    },
    {
      "inputs": [
        {
          "internalType": "address",
          "name": "from",
          "type": "address"
        },
        {
          "internalType": "address",
          "name": "to",
          "type": "address"
        },
        {
          "internalType": "uint256",
          "name": "tokenId",
          "type": "uint256"
        }
      ],
      "name": "transferFrom",
      "outputs": [],
      "stateMutability": "nonpayable",
      "type": "function"
    },
    {
      "inputs": [
        {
          "internalType": "string",
          "name": "tokenURI",
          "type": "string"
        }
      ],
      "name": "createNFT",
      "outputs": [
        {
          "internalType": "uint256",
          "name": "",
          "type": "uint256"
        }
      ],
      "stateMutability": "nonpayable",
      "type": "function"
    }
  ],
  "bytecode": "0x608060405234801562000010575f80fd5b506040518060400160405280600a81526020017f4d7946697273744e4654000000000000000000000000000000000000000000008152506040518060400160405280600381526020017f4d464e0000000000000000000000000000000000000000000000000000000000815250815f90816200008d919062000313565b5080600190816200009f919062000313565b5050505f600781905550620003f7565b5f81519050919050565b7f4e487b71000000000000000000000000000000000000000000000000000000005f52604160045260245ffd5b7f4e487b71000000000000000000000000000000000000000000000000000000005f52602260045260245ffd5b5f60028204905060018216806200012b57607f821691505b602082108103620001415762000140620000e6565b5b50919050565b5f819050815f5260205f209050919050565b5f6020601f8301049050919050565b5f82821b905092915050565b5f60088302620001a57fffffffffffffffffffffffffffffffffffffffffffffffffffffffffffffffff8262000168565b620001b1868362000168565b95508019841693508086168417925050509392505050565b5f819050919050565b5f819050919050565b5f620001fb620001f5620001ef84620001c9565b620001d2565b620001c9565b9050919050565b5f819050919050565b6200021683620001db565b6200022e620002258262000202565b84845462000174565b825550505050565b5f90565b6200024462000236565b620002518184846200020b565b505050565b5b8181101562000278576200026c5f826200023a565b60018101905062000257565b5050565b601f821115620002c757620002918162000147565b6200029c8462000159565b81016020851015620002ac578190505b620002c4620002bb8562000159565b83018262000256565b50505b505050565b5f82821c905092915050565b5f620002e95f1984600802620002cc565b1980831691505092915050565b5f620003038383620002d8565b9150826002028217905092915050565b6200031e82620000af565b67ffffffffffffffff8111156200033a5762000339620000b9565b5b62000346825462000113565b620003538282856200027c565b5f60209050601f83116001811462000389575f841562000374578287015190505b620003808582620002f6565b865550620003ef565b601f198416620003998662000147565b5f5b82811015620003c2578489015182556001820191506020850194506020810190506200039b565b86831015620003e25784890151620003de601f891682620002d8565b8355505b6001600288020188555050505b505050505050565b6123b980620004055f395ff3fe608060405234801561000f575f80fd5b50600436106100f3575f3560e01c806370a0823111610095578063c87b56dd11610064578063c87b56dd1461027f578063d082e381146102af578063da2ed03e146102cd578063e985e9c5146102fd576100f3565b806370a08231146101f957806395d89b4114610229578063a22cb46514610247578063b88d4fde14610263576100f3565b8063095ea7b3116100d1578063095ea7b31461017557806323b872dd1461019157806342842e0e146101ad5780636352211e146101c9576100f3565b806301ffc9a7146100f757806306fdde0314610127578063081812fc14610145575b5f80fd5b610111600480360381019061010c9190611857565b61032d565b60405161011e919061189c565b60405180910390f35b61012f61038d565b60405161013c919061193f565b60405180910390f35b61015f600480360381019061015a9190611992565b61041c565b60405161016c91906119fc565b60405180910390f35b61018f600480360381019061018a9190611a3f565b610437565b005b6101ab60048036038101906101a69190611a7d565b61044d565b005b6101c760048036038101906101c29190611a7d565b61054c565b005b6101e360048036038101906101de9190611992565b61056b565b6040516101f091906119fc565b60405180910390f35b610213600480360381019061020e9190611acd565b61057c565b6040516102209190611b07565b60405180910390f35b610231610632565b60405161023e919061193f565b60405180910390f35b610261600480360381019061025c9190611b4a565b6106c2565b005b61027d60048036038101906102789190611cb4565b6106d8565b005b61029960048036038101906102949190611992565b6106fd565b6040516102a6919061193f565b60405180910390f35b6102b7610808565b6040516102c49190611b07565b60405180910390f35b6102e760048036038101906102e29190611dd2565b61080e565b6040516102f49190611b07565b60405180910390f35b61031760048036038101906103129190611e19565b610882565b604051610324919061189c565b60405180910390f35b5f634906490660e01b7bffffffffffffffffffffffffffffffffffffffffffffffffffffffff1916827bffffffffffffffffffffffffffffffffffffffffffffffffffffffff19161480610386575061038582610910565b5b9050919050565b60605f805461039b90611e84565b80601f01602080910402602001604051908101604052809291908181526020018280546103c790611e84565b80156104125780601f106103e957610100808354040283529160200191610412565b820191905f5260205f20905b8154815290600101906020018083116103f557829003601f168201915b5050505050905090565b5f610426826109f1565b5061043082610a77565b9050919050565b6104498282610444610ab0565b610ab7565b5050565b5f73ffffffffffffffffffffffffffffffffffffffff168273ffffffffffffffffffffffffffffffffffffffff16036104bd575f6040517f64a0ae920000000000000000000000000000000000000000000000000000000081526004016104b491906119fc565b60405180910390fd5b5f6104d083836104cb610ab0565b610ac9565b90508373ffffffffffffffffffffffffffffffffffffffff168173ffffffffffffffffffffffffffffffffffffffff1614610546578382826040517f64283d7b00000000000000000000000000000000000000000000000000000000815260040161053d93929190611eb4565b60405180910390fd5b50505050565b61056683838360405180602001604052805f8152506106d8565b505050565b5f610575826109f1565b9050919050565b5f8073ffffffffffffffffffffffffffffffffffffffff168273ffffffffffffffffffffffffffffffffffffffff16036105ed575f6040517f89c62b640000000000000000000000000000000000000000000000000000000081526004016105e491906119fc565b60405180910390fd5b60035f8373ffffffffffffffffffffffffffffffffffffffff1673ffffffffffffffffffffffffffffffffffffffff1681526020019081526020015f20549050919050565b60606001805461064190611e84565b80601f016020809104026020016040519081016040528092919081815260200182805461066d90611e84565b80156106b85780601f1061068f576101008083540402835291602001916106b8565b820191905f5260205f20905b81548152906001019060200180831161069b57829003601f168201915b5050505050905090565b6106d46106cd610ab0565b8383610cd4565b5050565b6106e384848461044d565b6106f76106ee610ab0565b85858585610e3d565b50505050565b6060610708826109f1565b505f60065f8481526020019081526020015f20805461072690611e84565b80601f016020809104026020016040519081016040528092919081815260200182805461075290611e84565b801561079d5780601f106107745761010080835404028352916020019161079d565b820191905f5260205f20905b81548152906001019060200180831161078057829003601f168201915b505050505090505f6107ad610fe9565b90505f8151036107c1578192505050610803565b5f825111156107f55780826040516020016107dd929190611f23565b60405160208183030381529060405292505050610803565b6107fe84610fff565b925050505b919050565b60075481565b5f80600754905061081f3382611065565b6108298184611082565b7fe883eeefa7f620d513eac93479fc9f54ce03f9f4a72c0d818311a9d19556e879818460405161085a929190611f46565b60405180910390a160075f81548092919061087490611fa1565b919050555080915050919050565b5f60055f8473ffffffffffffffffffffffffffffffffffffffff1673ffffffffffffffffffffffffffffffffffffffff1681526020019081526020015f205f8373ffffffffffffffffffffffffffffffffffffffff1673ffffffffffffffffffffffffffffffffffffffff1681526020019081526020015f205f9054906101000a900460ff16905092915050565b5f7f80ac58cd000000000000000000000000000000000000000000000000000000007bffffffffffffffffffffffffffffffffffffffffffffffffffffffff1916827bffffffffffffffffffffffffffffffffffffffffffffffffffffffff191614806109da57507f5b5e139f000000000000000000000000000000000000000000000000000000007bffffffffffffffffffffffffffffffffffffffffffffffffffffffff1916827bffffffffffffffffffffffffffffffffffffffffffffffffffffffff1916145b806109ea57506109e9826110dc565b5b9050919050565b5f806109fc83611145565b90505f73ffffffffffffffffffffffffffffffffffffffff168173ffffffffffffffffffffffffffffffffffffffff1603610a6e57826040517f7e273289000000000000000000000000000000000000000000000000000000008152600401610a659190611b07565b60405180910390fd5b80915050919050565b5f60045f8381526020019081526020015f205f9054906101000a900473ffffffffffffffffffffffffffffffffffffffff169050919050565b5f33905090565b610ac4838383600161117e565b505050565b5f80610ad484611145565b90505f73ffffffffffffffffffffffffffffffffffffffff168373ffffffffffffffffffffffffffffffffffffffff1614610b1557610b1481848661133d565b5b5f73ffffffffffffffffffffffffffffffffffffffff168173ffffffffffffffffffffffffffffffffffffffff1614610ba057610b545f855f8061117e565b600160035f8373ffffffffffffffffffffffffffffffffffffffff1673ffffffffffffffffffffffffffffffffffffffff1681526020019081526020015f205f82825403925050819055505b5f73ffffffffffffffffffffffffffffffffffffffff168573ffffffffffffffffffffffffffffffffffffffff1614610c1f57600160035f8773ffffffffffffffffffffffffffffffffffffffff1673ffffffffffffffffffffffffffffffffffffffff1681526020019081526020015f205f82825401925050819055505b8460025f8681526020019081526020015f205f6101000a81548173ffffffffffffffffffffffffffffffffffffffff021916908373ffffffffffffffffffffffffffffffffffffffff160217905550838573ffffffffffffffffffffffffffffffffffffffff168273ffffffffffffffffffffffffffffffffffffffff167fddf252ad1be2c89b69c2b068fc378daa952ba7f163c4a11628f55a4df523b3ef60405160405180910390a4809150509392505050565b5f73ffffffffffffffffffffffffffffffffffffffff168273ffffffffffffffffffffffffffffffffffffffff1603610d4457816040517f5b08ba18000000000000000000000000000000000000000000000000000000008152600401610d3b91906119fc565b60405180910390fd5b8060055f8573ffffffffffffffffffffffffffffffffffffffff1673ffffffffffffffffffffffffffffffffffffffff1681526020019081526020015f205f8473ffffffffffffffffffffffffffffffffffffffff1673ffffffffffffffffffffffffffffffffffffffff1681526020019081526020015f205f6101000a81548160ff0219169083151502179055508173ffffffffffffffffffffffffffffffffffffffff168373ffffffffffffffffffffffffffffffffffffffff167f17307eab39ab6107e8899845ad3d59bd9653f200f220920489ca2b5937696c3183604051610e30919061189c565b60405180910390a3505050565b5f8373ffffffffffffffffffffffffffffffffffffffff163b1115610fe2578273ffffffffffffffffffffffffffffffffffffffff1663150b7a02868685856040518563ffffffff1660e01b8152600401610e9b949392919061203a565b6020604051808303815f875af1925050508015610ed657506040513d601f19601f82011682018060405250810190610ed39190612098565b60015b610f57573d805f8114610f04576040519150601f19603f3d011682016040523d82523d5f602084013e610f09565b606091505b505f815103610f4f57836040517f64a0ae92000000000000000000000000000000000000000000000000000000008152600401610f4691906119fc565b60405180910390fd5b805181602001fd5b63150b7a0260e01b7bffffffffffffffffffffffffffffffffffffffffffffffffffffffff1916817bffffffffffffffffffffffffffffffffffffffffffffffffffffffff191614610fe057836040517f64a0ae92000000000000000000000000000000000000000000000000000000008152600401610fd791906119fc565b60405180910390fd5b505b5050505050565b606060405180602001604052805f815250905090565b606061100a826109f1565b505f611014610fe9565b90505f8151116110325760405180602001604052805f81525061105d565b8061103c84611400565b60405160200161104d929190611f23565b6040516020818303038152906040525b915050919050565b61107e828260405180602001604052805f8152506114ca565b5050565b8060065f8481526020019081526020015f2090816110a09190612260565b507ff8e1a15aba9398e019f0b49df1a4fde98ee17ae345cb5f6b5e2c27f5033e8ce7826040516110d09190611b07565b60405180910390a15050565b5f7f01ffc9a7000000000000000000000000000000000000000000000000000000007bffffffffffffffffffffffffffffffffffffffffffffffffffffffff1916827bffffffffffffffffffffffffffffffffffffffffffffffffffffffff1916149050919050565b5f60025f8381526020019081526020015f205f9054906101000a900473ffffffffffffffffffffffffffffffffffffffff169050919050565b80806111b657505f73ffffffffffffffffffffffffffffffffffffffff168273ffffffffffffffffffffffffffffffffffffffff1614155b156112e8575f6111c5846109f1565b90505f73ffffffffffffffffffffffffffffffffffffffff168373ffffffffffffffffffffffffffffffffffffffff161415801561122f57508273ffffffffffffffffffffffffffffffffffffffff168173ffffffffffffffffffffffffffffffffffffffff1614155b801561124257506112408184610882565b155b1561128457826040517fa9fbf51f00000000000000000000000000000000000000000000000000000000815260040161127b91906119fc565b60405180910390fd5b81156112e657838573ffffffffffffffffffffffffffffffffffffffff168273ffffffffffffffffffffffffffffffffffffffff167f8c5be1e5ebec7d5bd14f71427d1e84f3dd0314c0f7b2291e5b200ac8c7c3b92560405160405180910390a45b505b8360045f8581526020019081526020015f205f6101000a81548173ffffffffffffffffffffffffffffffffffffffff021916908373ffffffffffffffffffffffffffffffffffffffff16021790555050505050565b6113488383836114ed565b6113fb575f73ffffffffffffffffffffffffffffffffffffffff168373ffffffffffffffffffffffffffffffffffffffff16036113bc57806040517f7e2732890000000000000000000000000000000000000000000000000000000081526004016113b39190611b07565b60405180910390fd5b81816040517f177e802f0000000000000000000000000000000000000000000000000000000081526004016113f292919061232f565b60405180910390fd5b505050565b60605f600161140e846115ad565b0190505f8167ffffffffffffffff81111561142c5761142b611b90565b5b6040519080825280601f01601f19166020018201604052801561145e5781602001600182028036833780820191505090505b5090505f82602001820190505b6001156114bf578080600190039150507f3031323334353637383961626364656600000000000000000000000000000000600a86061a8153600a85816114b4576114b3612356565b5b0494505f850361146b575b819350505050919050565b6114d483836116fe565b6114e86114df610ab0565b5f858585610e3d565b505050565b5f8073ffffffffffffffffffffffffffffffffffffffff168373ffffffffffffffffffffffffffffffffffffffff16141580156115a457508273ffffffffffffffffffffffffffffffffffffffff168473ffffffffffffffffffffffffffffffffffffffff16148061156557506115648484610882565b5b806115a357508273ffffffffffffffffffffffffffffffffffffffff1661158b83610a77565b73ffffffffffffffffffffffffffffffffffffffff16145b5b90509392505050565b5f805f90507a184f03e93ff9f4daa797ed6e38ed64bf6a1f0100000000000000008310611609577a184f03e93ff9f4daa797ed6e38ed64bf6a1f01000000000000000083816115ff576115fe612356565b5b0492506040810190505b6d04ee2d6d415b85acef81000000008310611646576d04ee2d6d415b85acef8100000000838161163c5761163b612356565b5b0492506020810190505b662386f26fc10000831061167557662386f26fc10000838161166b5761166a612356565b5b0492506010810190505b6305f5e100831061169e576305f5e100838161169457611693612356565b5b0492506008810190505b61271083106116c35761271083816116b9576116b8612356565b5b0492506004810190505b606483106116e657606483816116dc576116db612356565b5b0492506002810190505b600a83106116f5576001810190505b80915050919050565b5f73ffffffffffffffffffffffffffffffffffffffff168273ffffffffffffffffffffffffffffffffffffffff160361176e575f6040517f64a0ae9200000000000000000000000000000000000000000000000000000000815260040161176591906119fc565b60405180910390fd5b5f61177a83835f610ac9565b90505f73ffffffffffffffffffffffffffffffffffffffff168173ffffffffffffffffffffffffffffffffffffffff16146117ec575f6040517f73c6ac6e0000000000000000000000000000000000000000000000000000000081526004016117e391906119fc565b60405180910390fd5b505050565b5f604051905090565b5f80fd5b5f80fd5b5f7fffffffff0000000000000000000000000000000000000000000000000000000082169050919050565b61183681611802565b8114611840575f80fd5b50565b5f813590506118518161182d565b92915050565b5f6020828403121561186c5761186b6117fa565b5b5f61187984828501611843565b91505092915050565b5f8115159050919050565b61189681611882565b82525050565b5f6020820190506118af5f83018461188d565b92915050565b5f81519050919050565b5f82825260208201905092915050565b5f5b838110156118ec5780820151818401526020810190506118d1565b5f8484015250505050565b5f601f19601f8301169050919050565b5f611911826118b5565b61191b81856118bf565b935061192b8185602086016118cf565b611934816118f7565b840191505092915050565b5f6020820190508181035f8301526119578184611907565b905092915050565b5f819050919050565b6119718161195f565b811461197b575f80fd5b50565b5f8135905061198c81611968565b92915050565b5f602082840312156119a7576119a66117fa565b5b5f6119b48482850161197e565b91505092915050565b5f73ffffffffffffffffffffffffffffffffffffffff82169050919050565b5f6119e6826119bd565b9050919050565b6119f6816119dc565b82525050565b5f602082019050611a0f5f8301846119ed565b92915050565b611a1e816119dc565b8114611a28575f80fd5b50565b5f81359050611a3981611a15565b92915050565b5f8060408385031215611a5557611a546117fa565b5b5f611a6285828601611a2b565b9250506020611a738582860161197e565b9150509250929050565b5f805f60608486031215611a9457611a936117fa565b5b5f611aa186828701611a2b565b9350506020611ab286828701611a2b565b9250506040611ac38682870161197e565b9150509250925092565b5f60208284031215611ae257611ae16117fa565b5b5f611aef84828501611a2b565b91505092915050565b611b018161195f565b82525050565b5f602082019050611b1a5f830184611af8565b92915050565b611b2981611882565b8114611b33575f80fd5b50565b5f81359050611b4481611b20565b92915050565b5f8060408385031215611b6057611b5f6117fa565b5b5f611b6d85828601611a2b565b9250506020611b7e85828601611b36565b9150509250929050565b5f80fd5b5f80fd5b7f4e487b71000000000000000000000000000000000000000000000000000000005f52604160045260245ffd5b611bc6826118f7565b810181811067ffffffffffffffff82111715611be557611be4611b90565b5b80604052505050565b5f611bf76117f1565b9050611c038282611bbd565b919050565b5f67ffffffffffffffff821115611c2257611c21611b90565b5b611c2b826118f7565b9050602081019050919050565b828183375f83830152505050565b5f611c58611c5384611c08565b611bee565b905082815260208101848484011115611c7457611c73611b8c565b5b611c7f848285611c38565b509392505050565b5f82601f830112611c9b57611c9a611b88565b5b8135611cab848260208601611c46565b91505092915050565b5f805f8060808587031215611ccc57611ccb6117fa565b5b5f611cd987828801611a2b565b9450506020611cea87828801611a2b565b9350506040611cfb8782880161197e565b925050606085013567ffffffffffffffff811115611d1c57611d1b6117fe565b5b611d2887828801611c87565b91505092959194509250565b5f67ffffffffffffffff821115611d4e57611d4d611b90565b5b611d57826118f7565b9050602081019050919050565b5f611d76611d7184611d34565b611bee565b905082815260208101848484011115611d9257611d91611b8c565b5b611d9d848285611c38565b509392505050565b5f82601f830112611db957611db8611b88565b5b8135611dc9848260208601611d64565b91505092915050565b5f60208284031215611de757611de66117fa565b5b5f82013567ffffffffffffffff811115611e0457611e036117fe565b5b611e1084828501611da5565b91505092915050565b5f8060408385031215611e2f57611e2e6117fa565b5b5f611e3c85828601611a2b565b9250506020611e4d85828601611a2b565b9150509250929050565b7f4e487b71000000000000000000000000000000000000000000000000000000005f52602260045260245ffd5b5f6002820490506001821680611e9b57607f821691505b602082108103611eae57611ead611e57565b5b50919050565b5f606082019050611ec75f8301866119ed565b611ed46020830185611af8565b611ee160408301846119ed565b949350505050565b5f81905092915050565b5f611efd826118b5565b611f078185611ee9565b9350611f178185602086016118cf565b80840191505092915050565b5f611f2e8285611ef3565b9150611f3a8284611ef3565b91508190509392505050565b5f604082019050611f595f830185611af8565b8181036020830152611f6b8184611907565b90509392505050565b7f4e487b71000000000000000000000000000000000000000000000000000000005f52601160045260245ffd5b5f611fab8261195f565b91507fffffffffffffffffffffffffffffffffffffffffffffffffffffffffffffffff8203611fdd57611fdc611f74565b5b600182019050919050565b5f81519050919050565b5f82825260208201905092915050565b5f61200c82611fe8565b6120168185611ff2565b93506120268185602086016118cf565b61202f816118f7565b840191505092915050565b5f60808201905061204d5f8301876119ed565b61205a60208301866119ed565b6120676040830185611af8565b81810360608301526120798184612002565b905095945050505050565b5f815190506120928161182d565b92915050565b5f602082840312156120ad576120ac6117fa565b5b5f6120ba84828501612084565b91505092915050565b5f819050815f5260205f209050919050565b5f6020601f8301049050919050565b5f82821b905092915050565b5f6008830261211f7fffffffffffffffffffffffffffffffffffffffffffffffffffffffffffffffff826120e4565b61212986836120e4565b95508019841693508086168417925050509392505050565b5f819050919050565b5f61216461215f61215a8461195f565b612141565b61195f565b9050919050565b5f819050919050565b61217d8361214a565b6121916121898261216b565b8484546120f0565b825550505050565b5f90565b6121a5612199565b6121b0818484612174565b505050565b5b818110156121d3576121c85f8261219d565b6001810190506121b6565b5050565b601f821115612218576121e9816120c3565b6121f2846120d5565b81016020851015612201578190505b61221561220d856120d5565b8301826121b5565b50505b505050565b5f82821c905092915050565b5f6122385f198460080261221d565b1980831691505092915050565b5f6122508383612229565b9150826002028217905092915050565b612269826118b5565b67ffffffffffffffff81111561228257612281611b90565b5b61228c8254611e84565b6122978282856121d7565b5f60209050601f8311600181146122c8575f84156122b6578287015190505b6122c08582612245565b865550612327565b601f1984166122d6866120c3565b5f5b828110156122fd578489015182556001820191506020850194506020810190506122d8565b8683101561231a5784890151612316601f891682612229565b8355505b6001600288020188555050505b505050505050565b5f6040820190506123425f8301856119ed565b61234f6020830184611af8565b9392505050565b7f4e487b71000000000000000000000000000000000000000000000000000000005f52601260045260245ffdfea2646970667358221220cb8e4e9fde12a0e7d0c2159895c098bfad5a56bd61379b72e1321dbbe991102464736f6c63430008140033",
  "immutableReferences": {},
  "source": "// SPDX-License-Identifier: MIT\npragma solidity ^0.8.20;\n\nimport \"@openzeppelin/contracts/token/ERC721/extensions/ERC721URIStorage.sol\";\n\ncontract MyNFT is ERC721URIStorage {\n    uint256 public tokenCounter;\n\n    event NFTCreated(uint256 tokenId, string tokenURI);\n\n    constructor() ERC721(\"MyFirstNFT\", \"MFN\") {\n        tokenCounter = 0;\n    }\n\n    function createNFT(string memory tokenURI) public returns (uint256) {\n        uint256 newItemId = tokenCounter;\n        _safeMint(msg.sender, newItemId);\n        _setTokenURI(newItemId, tokenURI);\n        emit NFTCreated(newItemId, tokenURI); // Debugging event\n        tokenCounter++;\n        return newItemId;\n    }\n}\n",
  "sourcePath": "/home/aditya/truffle-local/truffle-local/NFT_in_truffle/contracts/MyNFT.sol",
  "compiler": {
    "name": "solc",
    "version": "0.8.20+commit.a1b79de6.Emscripten.clang"
  },
  "schemaVersion": "3.4.16",
  "updatedAt": "2025-06-28T08:19:52.162Z",
  "networkType": "ethereum",
  "devdoc": {
    "errors": {
      "ERC721IncorrectOwner(address,uint256,address)": [
        {
          "details": "Indicates an error related to the ownership over a particular token. Used in transfers.",
          "params": {
            "owner": "Address of the current owner of a token.",
            "sender": "Address whose tokens are being transferred.",
            "tokenId": "Identifier number of a token."
          }
        }
      ],
      "ERC721InsufficientApproval(address,uint256)": [
        {
          "details": "Indicates a failure with the `operator`s approval. Used in transfers.",
          "params": {
            "operator": "Address that may be allowed to operate on tokens without being their owner.",
            "tokenId": "Identifier number of a token."
          }
        }
      ],
      "ERC721InvalidApprover(address)": [
        {
          "details": "Indicates a failure with the `approver` of a token to be approved. Used in approvals.",
          "params": {
            "approver": "Address initiating an approval operation."
          }
        }
      ],
      "ERC721InvalidOperator(address)": [
        {
          "details": "Indicates a failure with the `operator` to be approved. Used in approvals.",
          "params": {
            "operator": "Address that may be allowed to operate on tokens without being their owner."
          }
        }
      ],
      "ERC721InvalidOwner(address)": [
        {
          "details": "Indicates that an address can't be an owner. For example, `address(0)` is a forbidden owner in ERC-20. Used in balance queries.",
          "params": {
            "owner": "Address of the current owner of a token."
          }
        }
      ],
      "ERC721InvalidReceiver(address)": [
        {
          "details": "Indicates a failure with the token `receiver`. Used in transfers.",
          "params": {
            "receiver": "Address to which tokens are being transferred."
          }
        }
      ],
      "ERC721InvalidSender(address)": [
        {
          "details": "Indicates a failure with the token `sender`. Used in transfers.",
          "params": {
            "sender": "Address whose tokens are being transferred."
          }
        }
      ],
      "ERC721NonexistentToken(uint256)": [
        {
          "details": "Indicates a `tokenId` whose `owner` is the zero address.",
          "params": {
            "tokenId": "Identifier number of a token."
          }
        }
      ]
    },
    "events": {
      "Approval(address,address,uint256)": {
        "details": "Emitted when `owner` enables `approved` to manage the `tokenId` token."
      },
      "ApprovalForAll(address,address,bool)": {
        "details": "Emitted when `owner` enables or disables (`approved`) `operator` to manage all of its assets."
      },
      "BatchMetadataUpdate(uint256,uint256)": {
        "details": "This event emits when the metadata of a range of tokens is changed. So that the third-party platforms such as NFT market could timely update the images and related attributes of the NFTs."
      },
      "MetadataUpdate(uint256)": {
        "details": "This event emits when the metadata of a token is changed. So that the third-party platforms such as NFT market could timely update the images and related attributes of the NFT."
      },
      "Transfer(address,address,uint256)": {
        "details": "Emitted when `tokenId` token is transferred from `from` to `to`."
      }
    },
    "kind": "dev",
    "methods": {
      "approve(address,uint256)": {
        "details": "See {IERC721-approve}."
      },
      "balanceOf(address)": {
        "details": "See {IERC721-balanceOf}."
      },
      "getApproved(uint256)": {
        "details": "See {IERC721-getApproved}."
      },
      "isApprovedForAll(address,address)": {
        "details": "See {IERC721-isApprovedForAll}."
      },
      "name()": {
        "details": "See {IERC721Metadata-name}."
      },
      "ownerOf(uint256)": {
        "details": "See {IERC721-ownerOf}."
      },
      "safeTransferFrom(address,address,uint256)": {
        "details": "See {IERC721-safeTransferFrom}."
      },
      "safeTransferFrom(address,address,uint256,bytes)": {
        "details": "See {IERC721-safeTransferFrom}."
      },
      "setApprovalForAll(address,bool)": {
        "details": "See {IERC721-setApprovalForAll}."
      },
      "supportsInterface(bytes4)": {
        "details": "See {IERC165-supportsInterface}"
      },
      "symbol()": {
        "details": "See {IERC721Metadata-symbol}."
      },
      "tokenURI(uint256)": {
        "details": "See {IERC721Metadata-tokenURI}."
      },
      "transferFrom(address,address,uint256)": {
        "details": "See {IERC721-transferFrom}."
      }
    },
    "version": 1
  },
  "userdoc": {
    "kind": "user",
    "methods": {},
    "version": 1
  }
}